{
  "_format": "hh-sol-artifact-1",
  "contractName": "WavePortal",
  "sourceName": "contracts/WavePortal.sol",
  "abi": [
    {
      "inputs": [],
      "stateMutability": "payable",
      "type": "constructor"
    },
    {
      "anonymous": false,
      "inputs": [
        {
          "indexed": true,
          "internalType": "address",
          "name": "from",
          "type": "address"
        },
        {
          "indexed": false,
          "internalType": "uint256",
          "name": "timestamp",
          "type": "uint256"
        },
        {
          "indexed": false,
          "internalType": "string",
          "name": "message",
          "type": "string"
        }
      ],
      "name": "NewWave",
      "type": "event"
    },
    {
      "inputs": [],
      "name": "getAllWaves",
      "outputs": [
        {
          "components": [
            {
              "internalType": "address",
              "name": "waver",
              "type": "address"
            },
            {
              "internalType": "string",
              "name": "message",
              "type": "string"
            },
            {
              "internalType": "uint256",
              "name": "timestamp",
              "type": "uint256"
            }
          ],
          "internalType": "struct WavePortal.Wave[]",
          "name": "",
          "type": "tuple[]"
        }
      ],
      "stateMutability": "view",
      "type": "function"
    },
    {
      "inputs": [],
      "name": "getTotalWaves",
      "outputs": [
        {
          "internalType": "uint256",
          "name": "",
          "type": "uint256"
        }
      ],
      "stateMutability": "view",
      "type": "function"
    },
    {
      "inputs": [],
      "name": "getUserWaves",
      "outputs": [
        {
          "internalType": "uint256",
          "name": "",
          "type": "uint256"
        }
      ],
      "stateMutability": "view",
      "type": "function"
    },
    {
      "inputs": [
        {
          "internalType": "address",
          "name": "",
          "type": "address"
        }
      ],
      "name": "lastWavedAt",
      "outputs": [
        {
          "internalType": "uint256",
          "name": "",
          "type": "uint256"
        }
      ],
      "stateMutability": "view",
      "type": "function"
    },
    {
      "inputs": [
        {
          "internalType": "address",
          "name": "",
          "type": "address"
        }
      ],
      "name": "userWaves",
      "outputs": [
        {
          "internalType": "uint256",
          "name": "",
          "type": "uint256"
        }
      ],
      "stateMutability": "view",
      "type": "function"
    },
    {
      "inputs": [
        {
          "internalType": "string",
          "name": "_message",
          "type": "string"
        }
      ],
      "name": "wave",
      "outputs": [],
      "stateMutability": "nonpayable",
      "type": "function"
    }
  ],
  "bytecode": "0x608060405262000033604051806060016040528060258152602001620014ff602591396200003960201b620008211760201c565b620001cd565b620000d98160405160240162000050919062000146565b6040516020818303038152906040527f41304fac000000000000000000000000000000000000000000000000000000007bffffffffffffffffffffffffffffffffffffffffffffffffffffffff19166020820180517bffffffffffffffffffffffffffffffffffffffffffffffffffffffff8381831617835250505050620000dc60201b60201c565b50565b60008151905060006a636f6e736f6c652e6c6f679050602083016000808483855afa5050505050565b600062000112826200016a565b6200011e818562000175565b93506200013081856020860162000186565b6200013b81620001bc565b840191505092915050565b6000602082019050818103600083015262000162818462000105565b905092915050565b600081519050919050565b600082825260208201905092915050565b60005b83811015620001a657808201518184015260208101905062000189565b83811115620001b6576000848401525b50505050565b6000601f19601f8301169050919050565b61132280620001dd6000396000f3fe608060405234801561001057600080fd5b50600436106100625760003560e01c80631e5c602314610067578063449d46c0146100975780634ad88b38146100b35780639a2cdc08146100d1578063a42a4663146100ef578063bd43a9081461011f575b600080fd5b610081600480360381019061007c9190610b3b565b61013d565b60405161008e9190610f6b565b60405180910390f35b6100b160048036038101906100ac9190610b64565b610155565b005b6100bb6105a8565b6040516100c89190610f6b565b60405180910390f35b6100d961066d565b6040516100e69190610f6b565b60405180910390f35b61010960048036038101906101049190610b3b565b6106b8565b6040516101169190610f6b565b60405180910390f35b6101276106d0565b6040516101349190610e67565b60405180910390f35b60036020528060005260406000206000915090505481565b42610384600460003373ffffffffffffffffffffffffffffffffffffffff1673ffffffffffffffffffffffffffffffffffffffff168152602001908152602001600020546101a39190611088565b106101e3576040517f08c379a00000000000000000000000000000000000000000000000000000000081526004016101da90610f4b565b60405180910390fd5b42600460003373ffffffffffffffffffffffffffffffffffffffff1673ffffffffffffffffffffffffffffffffffffffff1681526020019081526020016000208190555060016000808282546102399190611088565b9250508190555061027f6040518060400160405280600c81526020017f2573206861732077617665640000000000000000000000000000000000000000815250336108ba565b600360003373ffffffffffffffffffffffffffffffffffffffff1673ffffffffffffffffffffffffffffffffffffffff16815260200190815260200160002060008154809291906102cf9061118e565b9190505550600260405180606001604052803373ffffffffffffffffffffffffffffffffffffffff16815260200183815260200142815250908060018154018082558091505060019003906000526020600020906003020160009091909190915060008201518160000160006101000a81548173ffffffffffffffffffffffffffffffffffffffff021916908373ffffffffffffffffffffffffffffffffffffffff1602179055506020820151816001019080519060200190610393929190610a1b565b506040820151816002015550506000606460055442446103b39190611088565b6103bd9190611088565b6103c791906111d7565b90506104086040518060400160405280601681526020017f52616e646f6d20232067656e6572617465643a2025730000000000000000000081525082610956565b806005819055506032811015610554576104576040518060400160405280600781526020017f257320776f6e2100000000000000000000000000000000000000000000000000815250336108ba565b6000655af3107a40009050478111156104a5576040517f08c379a000000000000000000000000000000000000000000000000000000000815260040161049c90610f0b565b60405180910390fd5b60003373ffffffffffffffffffffffffffffffffffffffff16826040516104cb90610e52565b60006040518083038185875af1925050503d8060008114610508576040519150601f19603f3d011682016040523d82523d6000602084013e61050d565b606091505b5050905080610551576040517f08c379a000000000000000000000000000000000000000000000000000000000815260040161054890610f2b565b60405180910390fd5b50505b3373ffffffffffffffffffffffffffffffffffffffff167f5f7e16dc676677766a70e9c5628aa6c54ddb8b6e5188e2ae1e1f17f1ffbea716428460405161059c929190610f86565b60405180910390a25050565b60006106286040518060400160405280601681526020017f5765206861766520256420757365722077617665732100000000000000000000815250600360003373ffffffffffffffffffffffffffffffffffffffff1673ffffffffffffffffffffffffffffffffffffffff16815260200190815260200160002054610956565b600360003373ffffffffffffffffffffffffffffffffffffffff1673ffffffffffffffffffffffffffffffffffffffff16815260200190815260200160002054905090565b60006106b06040518060400160405280601781526020017f5765206861766520256420746f74616c20776176657321000000000000000000815250600054610956565b600054905090565b60046020528060005260406000206000915090505481565b60606002805480602002602001604051908101604052809291908181526020016000905b8282101561081857838290600052602060002090600302016040518060600160405290816000820160009054906101000a900473ffffffffffffffffffffffffffffffffffffffff1673ffffffffffffffffffffffffffffffffffffffff1673ffffffffffffffffffffffffffffffffffffffff16815260200160018201805461077d9061115c565b80601f01602080910402602001604051908101604052809291908181526020018280546107a99061115c565b80156107f65780601f106107cb576101008083540402835291602001916107f6565b820191906000526020600020905b8154815290600101906020018083116107d957829003601f168201915b50505050508152602001600282015481525050815260200190600101906106f4565b50505050905090565b6108b7816040516024016108359190610e89565b6040516020818303038152906040527f41304fac000000000000000000000000000000000000000000000000000000007bffffffffffffffffffffffffffffffffffffffffffffffffffffffff19166020820180517bffffffffffffffffffffffffffffffffffffffffffffffffffffffff83818316178352505050506109f2565b50565b61095282826040516024016108d0929190610eab565b6040516020818303038152906040527f319af333000000000000000000000000000000000000000000000000000000007bffffffffffffffffffffffffffffffffffffffffffffffffffffffff19166020820180517bffffffffffffffffffffffffffffffffffffffffffffffffffffffff83818316178352505050506109f2565b5050565b6109ee828260405160240161096c929190610edb565b6040516020818303038152906040527f9710a9d0000000000000000000000000000000000000000000000000000000007bffffffffffffffffffffffffffffffffffffffffffffffffffffffff19166020820180517bffffffffffffffffffffffffffffffffffffffffffffffffffffffff83818316178352505050506109f2565b5050565b60008151905060006a636f6e736f6c652e6c6f679050602083016000808483855afa5050505050565b828054610a279061115c565b90600052602060002090601f016020900481019282610a495760008555610a90565b82601f10610a6257805160ff1916838001178555610a90565b82800160010185558215610a90579182015b82811115610a8f578251825591602001919060010190610a74565b5b509050610a9d9190610aa1565b5090565b5b80821115610aba576000816000905550600101610aa2565b5090565b6000610ad1610acc84610fe7565b610fb6565b905082815260208101848484011115610ae957600080fd5b610af484828561111a565b509392505050565b600081359050610b0b816112d5565b92915050565b600082601f830112610b2257600080fd5b8135610b32848260208601610abe565b91505092915050565b600060208284031215610b4d57600080fd5b6000610b5b84828501610afc565b91505092915050565b600060208284031215610b7657600080fd5b600082013567ffffffffffffffff811115610b9057600080fd5b610b9c84828501610b11565b91505092915050565b6000610bb18383610de4565b905092915050565b610bc2816110de565b82525050565b610bd1816110de565b82525050565b6000610be282611027565b610bec818561104a565b935083602082028501610bfe85611017565b8060005b85811015610c3a5784840389528151610c1b8582610ba5565b9450610c268361103d565b925060208a01995050600181019050610c02565b50829750879550505050505092915050565b6000610c5782611032565b610c618185611066565b9350610c71818560208601611129565b610c7a816112c4565b840191505092915050565b6000610c9082611032565b610c9a8185611077565b9350610caa818560208601611129565b610cb3816112c4565b840191505092915050565b6000610ccb603483611077565b91507f547279696e6720746f207769746864726177206d6f7265206d6f6e657920746860008301527f616e2074686520636f6e7472616374206861732e0000000000000000000000006020830152604082019050919050565b6000610d31602783611077565b91507f4661696c656420746f207769746864726177206d6f6e65792066726f6d20636f60008301527f6e74726163742e000000000000000000000000000000000000000000000000006020830152604082019050919050565b6000610d9760008361105b565b9150600082019050919050565b6000610db1600883611077565b91507f576169742031356d0000000000000000000000000000000000000000000000006000830152602082019050919050565b6000606083016000830151610dfc6000860182610bb9565b5060208301518482036020860152610e148282610c4c565b9150506040830151610e296040860182610e34565b508091505092915050565b610e3d81611110565b82525050565b610e4c81611110565b82525050565b6000610e5d82610d8a565b9150819050919050565b60006020820190508181036000830152610e818184610bd7565b905092915050565b60006020820190508181036000830152610ea38184610c85565b905092915050565b60006040820190508181036000830152610ec58185610c85565b9050610ed46020830184610bc8565b9392505050565b60006040820190508181036000830152610ef58185610c85565b9050610f046020830184610e43565b9392505050565b60006020820190508181036000830152610f2481610cbe565b9050919050565b60006020820190508181036000830152610f4481610d24565b9050919050565b60006020820190508181036000830152610f6481610da4565b9050919050565b6000602082019050610f806000830184610e43565b92915050565b6000604082019050610f9b6000830185610e43565b8181036020830152610fad8184610c85565b90509392505050565b6000604051905081810181811067ffffffffffffffff82111715610fdd57610fdc611295565b5b8060405250919050565b600067ffffffffffffffff82111561100257611001611295565b5b601f19601f8301169050602081019050919050565b6000819050602082019050919050565b600081519050919050565b600081519050919050565b6000602082019050919050565b600082825260208201905092915050565b600081905092915050565b600082825260208201905092915050565b600082825260208201905092915050565b600061109382611110565b915061109e83611110565b9250827fffffffffffffffffffffffffffffffffffffffffffffffffffffffffffffffff038211156110d3576110d2611208565b5b828201905092915050565b60006110e9826110f0565b9050919050565b600073ffffffffffffffffffffffffffffffffffffffff82169050919050565b6000819050919050565b82818337600083830152505050565b60005b8381101561114757808201518184015260208101905061112c565b83811115611156576000848401525b50505050565b6000600282049050600182168061117457607f821691505b6020821081141561118857611187611266565b5b50919050565b600061119982611110565b91507fffffffffffffffffffffffffffffffffffffffffffffffffffffffffffffffff8214156111cc576111cb611208565b5b600182019050919050565b60006111e282611110565b91506111ed83611110565b9250826111fd576111fc611237565b5b828206905092915050565b7f4e487b7100000000000000000000000000000000000000000000000000000000600052601160045260246000fd5b7f4e487b7100000000000000000000000000000000000000000000000000000000600052601260045260246000fd5b7f4e487b7100000000000000000000000000000000000000000000000000000000600052602260045260246000fd5b7f4e487b7100000000000000000000000000000000000000000000000000000000600052604160045260246000fd5b6000601f19601f8301169050919050565b6112de816110de565b81146112e957600080fd5b5056fea26469706673582212208419c62080dfb60609a8f81bea4dca0e4898ba11d3a364890b51657be100c96b64736f6c63430008000033596f20796f2c204920616d206120636f6e747261637420616e64204920616d20736d617274",
  "linkReferences": {},
  "deployedLinkReferences": {}
}